:020000040800F2
:10000000300700200101000809010008CB010008A9
:100010000D0100080F010008110100080000000098
:1000200000000000000000000000000013010008B4
:100030001501000800000000530100083304000807
:100040001B0100081B0100081B0100081B01000820
:100050001B0100081B0100081B0100081B01000810
:100060001B0100081B0100081B0100081B01000800
:100070001B0100081B0100081B0100081B010008F0
:100080001B0100081B0100081B0100081B010008E0
:100090001B0100081B0100081B0100081B010008D0
:1000A0001B0100081B0100081B0100081B010008C0
:1000B0001B0100081B0100081B0100081B010008B0
:1000C0001B0100081B0100081B0100081B010008A0
:1000D0001B0100081B0100081B0100081B01000890
:1000E0001B0100081B0100081B010008DFF80CD0F1
:1000F00000F092F8004800473D0200083007002059
:100100000648804706480047FEE7FEE7FEE7FEE7B1
:10011000FEE7FEE7FEE7FEE7FEE7FEE7AD040008C8
:10012000ED000008EFF3108072B6704780F310887E
:100130007047334A1368012B04D04FF0010313605A
:10014000304A1060304A116030484FF080510160F1
:100150007047EFF3108272B62948016891B14FF0F1
:10016000000101602748016829B1EFF3098121E905
:10017000F00F00680160244909680968B1E8F00FD0
:1001800081F3098882F310884EF0040E70471E49EF
:1001900008601C494FF00000086019494FF0010049
:1001A00008601B484FF47F01D0F8002041EA0201AB
:1001B000016016484FF080510160164800680068E1
:1001C00080F3088861B662B670471EF0040F0CBF5A
:1001D000EFF30880EFF3098020E9F00F40F804ED19
:1001E0001EF0040F0CBF80F3088880F3098800B567
:1001F00000F0CAFA5DF804EB4EF0040E7047000000
:1002000010000020080000200C00002004ED00E099
:1002100020ED00E008ED00E0064C074D06E0E06848
:1002200040F0010394E8070098471034AC42F6D33D
:10023000FFF760FFFC1000081C11000810B500F06B
:10024000A6FE002010BD00002DE9F84FDFF8B891A0
:10025000002409F1040A0AF1040B23460F270BF1CD
:10026000040EC9E00125A5402A40AA427DD1674E6F
:10027000D1F804C0ACEB0608B44532D014DCBCF1B4
:10028000030F3AD009DCBCF1000F2AD0BCF1010FFA
:100290001CD0BCF1020F31D11DE0BCF1110F17D001
:1002A000BCF1120F2AD119E0B8F5881F19D006DC6D
:1002B000B8F5803F15D0B8F5801F1FD111E0B8F513
:1002C000001F0ED0B8F5041F18D10AE0CB6815E066
:1002D000CB681B1D12E0CB6808330FE0CB680C33F2
:1002E0000CE08B682BB1012B4FF0080303D0456164
:1002F00004E0042302E0056100E00023FF2A01D8A6
:10030000064601E000F104064FEA840501D9A5F193
:100310002005D6F8008007FA05FC28EA0C0803FA45
:1003200005F548EA0508C6F800804D68ED0062D57D
:10033000374DAE6946F00106AE61AD6924F00306A3
:1003400005F001050095334D06EB050CDCF808506F
:10035000A607360F07FA06F825EA0805DFF8B88081
:10036000404503D14FF0000817E044E0DFF8AC80CF
:10037000404502D14FF001080FE0DFF8A48040456E
:1003800002D14FF0020808E0DFF89880404502D122
:100390004FF0030801E04FF0040808FA06F848EAB5
:1003A0000508CCF808804D68D9F80060ED034D468B
:1003B00001D5164300E096432E604D68DAF80060E0
:1003C000AD03554601D5164300E096432E604D68B7
:1003D000DBF80060ED025D4601D5164300E0964370
:1003E0002E604D68DEF80060AD02754601D51643FB
:1003F00000E096432E60641C0D682A46E5407FF4B9
:1004000031AFBDE8F88F000000040140000011107A
:10041000001002400000014000080140000C0140B3
:1004200000100140001401400AB101617047090445
:10043000FBE710B500F0D0F900F0BAFCBDE81040C1
:1004400000F0D8B9144910B54868144A10F00C03EC
:10045000134803D0042B01D0082B09D0026049684F
:10046000104AC1F30311515C0268CA40026010BD1A
:100470004A684B6802F470124FF0020413F4803F94
:1004800004EB924202D04B689B0301D5064B00E07F
:10049000024B5A43E2E700000010024000127A00CB
:1004A00000000020B80F000800093D000D48016859
:1004B00041F00101016041680B4A1140416001684F
:1004C0000A4A11400160016821F4802101604168FD
:1004D00021F4FE0141604FF41F0181600449C00313
:1004E00008607047001002400000FFF8FFFFF6FEB2
:1004F00008ED00E0002806D00E4910F0FF0F03D0F1
:10050000C0B2085C401C704710F47F4F04D0C0F3A9
:100510000720085C0930704710F47F0F04D0C0F347
:100520000740085C1130704701EB1060007819300B
:1005300070470000C80F000802E008C8121F08C179
:10054000002AFAD170477047002001E001C1121F54
:10055000002AFBD17047000003480168814201D0A6
:100560000120704700207047680000202DE9FC4101
:100570001F460446DDE90831DDE90A6514304060B4
:100580000060C4E90827C4E90A310A462321184655
:100590001C3400F055F9D4E903014218D4E90101F3
:1005A000104B121F00F0FCF844F81A0B002004F85E
:1005B00001690D4A04F8036BE4E8020544F8105998
:1005C00001C404F83C0B01C444F8740900902346AC
:1005D0000190194604F1440000F05CFC0020BDE8E5
:1005E000FC810000B50A0008EF0C0008F0E90512D4
:1005F0004A60D0E90012116040600060704700005E
:1006000086B00025184800950195029503958169EB
:1006100041F0040181618069144C00F004000490F1
:100620002A4620212046FFF7FFFE202000900120CF
:10063000CDE901050220039069462046FFF704FE3C
:1006400025464FF4FA74012220212846FFF7ECFEDC
:10065000204600F0C9FA002220212846FFF7E4FED8
:10066000204600F0C1FAEEE7001002400008014009
:1006700010B500F031F8BDE81040FFF7C1BF000031
:100680001FB50A4C02221423D101A4F580708DE815
:100690000F000023064A07A1204600F08DFA04B09F
:1006A0002046BDE8104000F0EBBA000080010020B9
:1006B000710600086D61696E0000000070B5044CA1
:1006C000044D02E020688047241DAC42FAD370BD7F
:1006D000F0100008F410000870B5044C044D02E05E
:1006E00020688047241DAC42FAD370BDF410000886
:1006F000F810000810B5FFF715FD044A5188491C91
:100700005180BDE81040FFF711BD00005C000020E3
:1007100010B5FFF707FD0B4C6188491E09B26180D7
:1007200000290ADC00216180FFF700FD60680028D5
:1007300007D0BDE8104000F0FBB8BDE81040FFF75F
:10074000F5BC10BD5C00002010B5FFF77BFE0C4827
:100750004FF47A710068B0FBF1F0401EB0F1807F79
:1007600009D24FF0E021074A4861FF2010700020B5
:10077000886107200861BDE81040FFF79FBF0000B7
:100780000000002023ED00E0044910B5096811B114
:100790008847002800D0FEE710BD000004000020BC
:1007A00070B50446121D22F007000022094D4038A2
:1007B00040F82250521C102AFAD3016200214162F3
:1007C00081624FF0807200F13005C263C16285E83A
:1007D0001A0070BDEFBEADDE10B5FFF7A3FC044AF2
:1007E0001178491C1170BDE81040FFF79FBC000054
:1007F0001800002010B5FFF795FC044A1178491E37
:100800001170BDE81040FFF791BC000018000020F7
:100810000268516002680A600160486070470268BF
:10082000516002680A60016048607047D0E90012B8
:100830004A60D0E90012116040600060704700001B
:1008400010B50346CCB2042A1AD3810718D1194631
:1008500044EA042343EA034306E008C1103A08C10E
:1008600041F8083B41F8043C102AF6D201E008C1E7
:10087000121F042AFBD20B4602E000BF03F8014B13
:10088000521EFBD210BD10B5044600202072FFF7A7
:1008900049FCF4E903124A60D4E900121160646073
:1008A0002460BDE81040FFF741BC0000074A00216A
:1008B00002EB01131B78834202D102EB0110704757
:1008C000491C0429F4DB0020704700001C000020B4
:1008D0002DE9F041054617460E460846FFF7E6FFAC
:1008E0000446FFF707FF211D606800E000688842AA
:1008F000FCD1FFF70DFF46F0800028720822394630
:10090000284600F08EF8FFF70DFC54F8041F0C3554
:100910004D602168296025606C60BDE8F041FFF7FB
:1009200005BC007A000601D5012070470020704701
:1009300070B5FFF7F7FB114C05466088B0B9A068A9
:10094000FFF7D8FD0E49401E626851F83010143987
:1009500091420BD020700B486160007801F11C01BE
:10096000002802F11C0006D0FFF7E3FB2846BDE893
:100970007040FFF7DBBBFFF7DCFBF7E75C00002014
:10098000F00200201800002010B50446FFF7CAFB53
:10099000024694F834000E4920F00F00401C84F801
:1009A000340094F8350001EBC00104F114004B68E9
:1009B00018604B68A361486006486161A16B836859
:1009C00019438160BDE810401046FFF7AFBB00003F
:1009D000F00200205C00002010B50446FFF7A2FBE7
:1009E00004F11401D1E900235360D1E900231A6016
:1009F000A161616194F83520074951F8323001EB6B
:100A0000C2018B4204D10549A36B8A689A438A606C
:100A1000BDE81040FFF78ABBF00200205C00002018
:100A2000704710B5002A07D0034611F8014B03F8B0
:100A3000014B2CB1521EF8D110BD03F8011B00E090
:100A40000021521EF9D110BD10B50A4900230A4CED
:100A50004B80184604EBC002401C5260126008280C
:100A6000F8DB0720087003484B600C308B60406057
:100A7000006010BD5C000020F002002010B5074CA3
:100A8000A068FFF737FD0649401E51F830001438C2
:100A90006060BDE810401C30FFF779BB5C000020AF
:100AA000F0020020014840600060704774000020A0
:100AB0007047000070B513480468FFF733FB054624
:100AC0002046FFF789FF042084F8340004F1440035
:100AD00000F0D0F92046FFF724FF012801D1206F54
:100AE00058B104F114010848FFF792FE2846FFF7B9
:100AF0001DFBBDE87040FFF71BBF2046FFF7C3FE9C
:100B0000F4E70000600000206800002000F002F818
:100B1000FCE7000070B521E0FFF704FB0546FFF796
:100B20001BFD28B315480168A1F11404D1E90002A6
:100B30004260D1E90002106049600960FFF7DAFD08
:100B4000216F09B1204688472046FFF7EAFE0128B9
:100B500009D0FFF7DDFD2846FFF7E8FAFFF7FCFCB8
:100B60000028D9D170BD2046FFF78DFEFFF7D0FDDC
:100B70002846BDE87040FFF7D9BA000068000020A1
:100B80001FB509482023072280218DE80F0000238C
:100B9000064A07A1783800F00FF804B00248BDE813
:100BA0001040783800F06CB8700200200D0B00087F
:100BB0007469646C650000002DE9FF5F92460EAA1F
:100BC0000C4692E8E0010A46994683460121FFF768
:100BD0007FFE8DE8E0014B46524621465846FFF71E
:100BE000C5FC04B0BDE8F09F10B500F0C1F8BDE849
:100BF000104000F025B870B5044690F8340000F0BD
:100C00000F00022802D04FF0FF3070BDFFF78AFAC4
:100C1000054604F11400FFF709FE04F1440000F05A
:100C200097F92846FFF782FA2046FFF7ADFE00202D
:100C300070BD00000148006870470000600000209F
:100C4000F1B5FFF76FFA05460C480468204600F03E
:100C50002DF804F144006A460021064600F0F2F83F
:100C6000304600F02FF92846FFF760FAFFF760FEE4
:100C7000206B801C00D120630020F8BD60000020A4
:100C800010B590F83610012280F835108A40022104
:100C9000826380F83410FFF7AEFF0348006808B1A4
:100CA000FFF746FE002010BD6000002070B504462E
:100CB00090F8340000F00F00012802D04FF0FF3010
:100CC00070BDFFF72FFA054694F8340020F00F00AE
:100CD000801C84F834002046FFF77EFE04F14400B7
:100CE00000F036F92846FFF721FA002070BD10B554
:100CF00004466FF00100206304F11400FFF796FD35
:100D00002046FFF741FEBDE81040FFF711BE00008E
:100D100070B5FFF707FA06461348046894F83400E4
:100D200000F00F00012819D1D4E90501884215D03F
:100D300004F114000546FFF779FD94F835000B49DE
:100D400001EBC00041680D60416869604560286042
:100D50003046FFF7EBF9FFF7EBFD02E03046FFF717
:100D6000E5F9002070BD000060000020F0020020C6
:100D7000002802DA4FF0FF3070474FF47A7190FB91
:100D8000F1F290FBF1F301FB130000EB40034A4347
:100D9000C3EBC0104B1E03EBC00090FBF1F01044FE
:100DA00070470000014800687047000014000020F0
:100DB000094810B50168491C0160FFF73BFF016C51
:100DC000491E016403D1C16B0164FFF7A1FFBDE8B7
:100DD000104000F003B80000140000202DE9F0419D
:100DE000FFF7E0FF0646FFF79DF90746144D1EE0AA
:100DF00060696FF00041301A143C88421AD22046D4
:100E0000FFF7F4FBD4E907108847FFF7CBFF06464E
:100E1000607A810708D5C10706D020F00100607212
:100E2000204600F04FF802E020F0010060722C68CC
:100E3000AC42DDD13846BDE8F041FFF777B900009C
:100E40007400002049B1012904D0022908D00329E7
:100E50000ED109E0406A10600AE01168416207E0C3
:100E6000417A21F0020102E0417A41F0020141722F
:100E70000020704770B50546FFF754F90446284630
:100E8000FFF7B4FB2046FFF751F92846FFF7FBFCBC
:100E9000002070BD2DE9F0411746DDE906580A46ED
:100EA0001E4604460A21FFF713FD28F00101617276
:100EB0000021C4E90951C4E9077614346460246050
:100EC000BDE8F081F8B50446FFF72CF90546204649
:100ED000FFF78CFB607A20F0010060722846FFF774
:100EE00025F9FFF75FFF616A0844A062FFF71AF96E
:100EF0000546164A0020009202EBC002694653687C
:100F00006FF0004C5DF820200BE01268A2EBC006E9
:100F10007769A66AB74202D0BE1B664503D341F883
:100F200020209A42F1D10948001F0168491C016044
:100F300004F114010098FFF772FC607A40F00100A0
:100F400060722846FFF7F2F80020F8BD7400002018
:100F500070B50446407AC0070ED0FFF7E3F80546A7
:100F60002046FFF743FB2846FFF7E0F8607A20F0C1
:100F700001006072002070BD4FF0FF3070BD002096
:100F8000704700207047002070470020704710B560
:100F9000FFF7C8F8FFF7D8FBFFF742FDFFF782FD28
:100FA000FFF752FDFFF76CFBFFF782FDFFF7E8FD4F
:100FB000FFF764FD002010BD0000000000000000ED
:100FC00001020304060708090000010002000100F5
:100FD0000300010002000100040001000200010002
:100FE00003000100020001000500010002000100F1
:100FF00003000100020001000400010002000100E2
:1010000003000100020001000600010002000100CF
:1010100003000100020001000400010002000100C1
:1010200003000100020001000500010002000100B0
:1010300003000100020001000400010002000100A1
:10104000030001000200010007000100020001008E
:101050000300010002000100040001000200010081
:101060000300010002000100050001000200010070
:101070000300010002000100040001000200010061
:10108000030001000200010006000100020001004F
:101090000300010002000100040001000200010041
:1010A0000300010002000100050001000200010030
:1010B0000300010002000100040001000200010021
:1010C000030001000200010030313233343536377D
:1010D00038396162636465660030313233343536E5
:1010E0003738394142434445460000008B0F000821
:1010F000830F00087F0F0008870F00081C110008ED
:10110000000000207C00000038050008981100084D
:101110007C000020B4060000480500080024F4000C
:1011200000000000000000000000000000000000BF
:10113000000000000000000001000000200000206E
:101140002000002078000000020000003000002095
:1011500030000020200000000500000040000020BA
:1011600040000020300000000A0000005000002075
:10117000500000202C0000000000000000000000D3
:10118000000000000000000000000000000000005F
:08119000000000000000000057
:04000005080000ED02
:00000001FF
