:020000040000FA
:1000000068030010D5010000D9010000DB010000E9
:1000100000000000000000000000000000000000E0
:10002000000000000000000000000000DD010000F2
:100030000000000000000000DF010000E1010000FE
:1000400000000000E3010000E3010000E301000004
:10005000E3010000E3010000E3010000D308000019
:10006000E3010000E3010000E3010000E301000000
:10007000E3010000E3010000E301000000000000D4
:10008000E3010000E3010000E3010000E3010000E0
:100090000000000000000000E3010000E301000098
:1000A0000000000000000000000000000000000050
:1000B0000000000000000000000000000000000040
:1000C00000F002F800F040F80CA030C808382418FE
:1000D0002D18A246671EAB4654465D46AC4201D180
:1000E00000F032F87E460F3E0FCCB6460126334272
:1000F00000D0FB1AA246AB4633431847C80900009C
:10010000E8090000103A02D378C878C1FAD852073B
:1001100001D330C830C101D504680C6070470000BD
:100120000023002400250026103A01D378C1FBD813
:10013000520700D330C100D50B6070471FB5C046D1
:10014000C0461FBD10B510BD00F08AFC1146FFF778
:10015000F5FF00F0A5FB00F0A2FC03B4FFF7F2FFEF
:1001600003BC00F0A7FC000010B51448006B80072A
:10017000800F02D0022814D10EE010484038806A67
:100180000F49096A884203D10E480F49086002E00E
:100190000E480D49086005E07D2000020A4908600C
:1001A00000E000BF00BF0548806BC1B20648006890
:1001B00000F0A6FB0649086010BD7047408004406F
:1001C0000014FF1F006CDC0204000010005A6202E1
:1001D0000000001006480047FEE7FEE7FEE7FEE7E6
:1001E000FEE7FEE703480449044A054B7047000058
:1001F000C1000000680000106803001068010010D2
:1002000068010010EA488069401C03D0E848806912
:10021000E8498862E848406810210843E649486098
:100220000020E64908634863704710B5E44CE04895
:100230008069401C05D0DE488069DE498862FFF78E
:1002400093FF00BF2046641E0028FBD010BD10B5F0
:10025000DB4CD748006A401C05D0D548006AD54918
:100260008862FFF781FF00BF2046641E0028FBD094
:1002700010BD10B50446CF484030406B40084000E8
:10028000401CCC4940314863002C05D10846006B26
:1002900080088000086315E0032C08D1C548403071
:1002A000006BA043801CC349403108630AE0042C62
:1002B00008D1C0484030006B80088000401CBD4918
:1002C00040310863BB484030406B40084000B949AA
:1002D00040314863FFF748FF10BD10B50446B548EC
:1002E0004030006B8007800F04D1022C02DA01201D
:1002F000B449C860AF484030806B000A0002E1B2E8
:100300000843AC4940318863FFF72EFF10BD002839
:1003100007D1A849496A012212039143A54A5162B3
:1003200009E0032807D1A349496A01221203914336
:100330008918A04A51627047002806D001280AD0C7
:10034000022804D0032808D103E0002006E00120A1
:1003500004E0022002E0032000E0704700BF95495E
:10036000C031496AC908C900491C924AC032516269
:100370001146096AC908C9004207520F11438D4A44
:10038000C03211621146496AC908C900516200BFF2
:10039000E3E78849C031896A090A0902C2B21143F8
:1003A000844AC03291627047874888490860704724
:1003B0008048C030806A000A00027E49C0318862ED
:1003C0002B2000018149086070478149C968090AEA
:1003D0000902C2B211437E4AD16070477C49C031E4
:1003E000896B01437A4AC032916370477849C031C2
:1003F000896B8143764AC032916370476D49803181
:10040000096801436B4A8032116070476949803145
:1004100009688143674A80321160704765494968BD
:100420008143644A516011464968014351607047F5
:1004300000BFBFF34F8F67486749C860BFF34F8F56
:1004400000BF00BFFEE7012807D1614909691022FA
:10045000914310315E4A11610CE05D490969102237
:1004600091435B4A11611146096940229143403131
:10047000574A11617047594800680221884357491B
:10048000086055480069042188435349086130BF1A
:1004900070475248006802218843801C4F49086019
:1004A0004D480069042108434B49086130BF70473B
:1004B00070B504464A494B48006800F021FA604391
:1004C000054600BF28466D1E0028FBD170BD70B5E3
:1004D0000446642C08D843490968614308464249E8
:1004E00000F00EFA054606E040493E48006800F07C
:1004F00007FA6043054600BF28466D1E0028FBD161
:1005000070BD00BF0146401E0029FBD1704770B589
:1005100004460D463648844208D83648844205D3FE
:100520003348854202D83448854201D2012070BD4B
:100530002748C030806B2021884320302449C031B7
:1005400088632E48806901218904884340182B491B
:1005500088610120FFF7ACFF284880693F2109032B
:1005600088430521090340182449886108468069A9
:100570003F218901884340302049886108468069CD
:10058000302188431D4988610846806908218843D5
:1005900008301A4988610846806904218843174950
:1005A000886100BF1548C0690128FBD10020BEE763
:1005B0000014FF1F008004400080074000800640B8
:1005C000FFFF000000000650B102000000400440A0
:1005D000408104400400FA0500ED00E00080034083
:1005E000BE1E000000000010608B7800E052770013
:1005F00000879303808D5B00C0C62D0040820440BD
:10060000FFB581B0044616461D46A048844220D15D
:10061000072000F034F99E480068A1148843401870
:100620009B49086008468069000A0002401C8861F6
:10063000974880384068042188439549803948604C
:100640000846406804218843001D9149803948606C
:1006500025E09048844220D1082000F010F98C4811
:100660000068611488434018894908600846C069D9
:10067000000A0002401CC861854880384068082193
:100680008843834980394860084640680821884388
:1006900008307F498039486001E005B0F0BD7E48F0
:1006A0000299006800F02CF907033F0B2069000D48
:1006B000000538432061022E04D1A068F10188436F
:1006C0004018A060002E05D0A0680121490288438F
:1006D0004018A060022D04D1A06802218843801C2C
:1006E000A060202D04D1A068202188432030A06084
:1006F000082D04D1A068082188430830A060A068B4
:100700000121C90588434018A060A06849108843AA
:100710004018A0600120FFF7CBFEFF20606100BF02
:10072000BBE7C168FF221143C16070478168090AB5
:1007300009028160704710B504465448844209D1CB
:10074000072000F09CF852480068A11488435049E3
:1007500008600DE04F48844209D1082000F08FF86E
:100760004B480068611488434949086000E010BDA7
:100770002046FFF7DBFF2046FFF7D3FF00BFF6E779
:10078000024650688007C00F03D010680870002030
:1007900070470120FCE730B5002304E004680C70CA
:1007A000491C5C1CE3B24468A407E40F04D015782C
:1007B0006C1E1470002DF1D1137030BD02465068CC
:1007C0004007C00F01D00120704711600020FBE7F7
:1007D00010B5034658684007C00F01D1102A01DD4B
:1007E000012010BD02E008781860491C1046541E14
:1007F000E2B20028F7D100BFF3E710B507E000BF71
:1008000043685B07DB0FFBD10B780360491C134681
:10081000521E002BF3D110BD07E000BF4268520703
:10082000D20FFBD10A780260491C0A78002AF4D161
:10083000704730B50246072300BF080F092803DDC3
:1008400004463734E0B202E004463034E0B200BF80
:1008500054686407E40FFBD1106009011C465D1E5B
:10086000EBB2002CE9D130BD82680A438260704748
:1008700001464868C0B27047FF2141617047C20617
:10088000D20E01219140054A11607047008000405E
:100890008080044000C000400400001080E100E0BF
:1008A000FFF7B0FC12481349086248620223002295
:1008B000E12149021048FFF7A3FE02210E48FFF78D
:1008C000D3FF0720012181400C4A116000BF00BF07
:1008D000FEE70949C9688907C90F04D006490968B4
:1008E000C8B2054908600F21034AD1607047000073
:1008F000B3020000004004400080004000E100E03E
:10090000002203098B422CD3030A8B4211D300230C
:100910009C464EE003460B433CD4002243088B42E6
:1009200031D303098B421CD3030A8B4201D3944673
:100930003FE0C3098B4201D3CB01C01A5241830966
:100940008B4201D38B01C01A524143098B4201D320
:100950004B01C01A524103098B4201D30B01C01A4B
:100960005241C3088B4201D3CB00C01A52418308C5
:100970008B4201D38B00C01A524143088B4201D3F2
:100980004B00C01A5241411A00D201465241104652
:1009900070475DE0CA0F00D04942031000D34042C7
:1009A000534000229C4603098B422DD3030A8B42FD
:1009B00012D3FC22890112BA030A8B420CD389019B
:1009C00092118B4208D3890192118B4204D3890181
:1009D0003AD0921100E08909C3098B4201D3CB01BF
:1009E000C01A524183098B4201D38B01C01A524174
:1009F00043098B4201D34B01C01A524103098B4278
:100A000001D30B01C01A5241C3088B4201D3CB0062
:100A1000C01A524183088B4201D38B00C01A524145
:100A2000D9D243088B4201D34B00C01A5241411A1C
:100A300000D20146634652415B10104601D340424A
:100A4000002B00D54942704763465B1000D34042FB
:100A500001B50020C046C04602BD704770477047D0
:100A6000754600F023F8AE46050069465346C008B7
:100A7000C000854618B020B5FFF7B4FB60BC002766
:100A80004908B6460026C0C5C0C5C0C5C0C5C0C55A
:100A9000C0C5C0C5C0C5403D49008D46704704462D
:100AA000C046C0462046FFF758FB0000004870478C
:100AB0000800001001491820ABBEFEE72600020026
:100AC00070470000E40A0000000000100800000069
:100AD00004010000EC0A00000800001060030000A0
:0C0AE00020010000002D3101005A6202CC
:04000005000000C136
:00000001FF
